{
  "_format": "hh3-artifact-1",
  "contractName": "MoveChain",
  "sourceName": "contracts/MoveChain.sol",
  "abi": [
    {
      "inputs": [
        {
          "internalType": "address",
          "name": "admin1",
          "type": "address"
        },
        {
          "internalType": "address",
          "name": "admin2",
          "type": "address"
        },
        {
          "internalType": "address",
          "name": "admin3",
          "type": "address"
        },
        {
          "internalType": "address",
          "name": "tripCreditsAddress",
          "type": "address"
        }
      ],
      "stateMutability": "nonpayable",
      "type": "constructor"
    },
    {
      "inputs": [],
      "name": "ECDSAInvalidSignature",
      "type": "error"
    },
    {
      "inputs": [
        {
          "internalType": "uint256",
          "name": "length",
          "type": "uint256"
        }
      ],
      "name": "ECDSAInvalidSignatureLength",
      "type": "error"
    },
    {
      "inputs": [
        {
          "internalType": "bytes32",
          "name": "s",
          "type": "bytes32"
        }
      ],
      "name": "ECDSAInvalidSignatureS",
      "type": "error"
    },
    {
      "inputs": [],
      "name": "InvalidShortString",
      "type": "error"
    },
    {
      "inputs": [
        {
          "internalType": "string",
          "name": "str",
          "type": "string"
        }
      ],
      "name": "StringTooLong",
      "type": "error"
    },
    {
      "anonymous": false,
      "inputs": [
        {
          "indexed": true,
          "internalType": "address",
          "name": "admin",
          "type": "address"
        },
        {
          "indexed": true,
          "internalType": "address",
          "name": "addedBy",
          "type": "address"
        }
      ],
      "name": "AdminAdded_e",
      "type": "event"
    },
    {
      "anonymous": false,
      "inputs": [
        {
          "indexed": true,
          "internalType": "address",
          "name": "rider",
          "type": "address"
        },
        {
          "indexed": true,
          "internalType": "address",
          "name": "operator",
          "type": "address"
        },
        {
          "indexed": false,
          "internalType": "uint256",
          "name": "cost",
          "type": "uint256"
        }
      ],
      "name": "CompleteTrip_e",
      "type": "event"
    },
    {
      "anonymous": false,
      "inputs": [],
      "name": "EIP712DomainChanged",
      "type": "event"
    },
    {
      "anonymous": false,
      "inputs": [
        {
          "indexed": true,
          "internalType": "address",
          "name": "operator",
          "type": "address"
        },
        {
          "indexed": false,
          "internalType": "uint256",
          "name": "amount",
          "type": "uint256"
        }
      ],
      "name": "PayoutCredits_e",
      "type": "event"
    },
    {
      "anonymous": false,
      "inputs": [
        {
          "indexed": true,
          "internalType": "address",
          "name": "rider",
          "type": "address"
        },
        {
          "indexed": true,
          "internalType": "address",
          "name": "operator",
          "type": "address"
        }
      ],
      "name": "StartTrip_e",
      "type": "event"
    },
    {
      "inputs": [],
      "name": "ACTION_START",
      "outputs": [
        {
          "internalType": "uint8",
          "name": "",
          "type": "uint8"
        }
      ],
      "stateMutability": "view",
      "type": "function"
    },
    {
      "inputs": [],
      "name": "ACTION_STOP",
      "outputs": [
        {
          "internalType": "uint8",
          "name": "",
          "type": "uint8"
        }
      ],
      "stateMutability": "view",
      "type": "function"
    },
    {
      "inputs": [
        {
          "internalType": "address",
          "name": "newAdmin",
          "type": "address"
        }
      ],
      "name": "addAdmin",
      "outputs": [],
      "stateMutability": "nonpayable",
      "type": "function"
    },
    {
      "inputs": [
        {
          "internalType": "address",
          "name": "operator",
          "type": "address"
        },
        {
          "internalType": "uint256",
          "name": "_price",
          "type": "uint256"
        },
        {
          "internalType": "string",
          "name": "_name",
          "type": "string"
        }
      ],
      "name": "addOperator",
      "outputs": [],
      "stateMutability": "nonpayable",
      "type": "function"
    },
    {
      "inputs": [
        {
          "internalType": "uint256",
          "name": "amount",
          "type": "uint256"
        }
      ],
      "name": "buyCredits",
      "outputs": [],
      "stateMutability": "payable",
      "type": "function"
    },
    {
      "inputs": [
        {
          "internalType": "address",
          "name": "rider",
          "type": "address"
        },
        {
          "internalType": "uint256",
          "name": "deadline",
          "type": "uint256"
        },
        {
          "internalType": "bytes",
          "name": "signature",
          "type": "bytes"
        }
      ],
      "name": "completeTrip",
      "outputs": [],
      "stateMutability": "nonpayable",
      "type": "function"
    },
    {
      "inputs": [
        {
          "internalType": "address",
          "name": "account",
          "type": "address"
        }
      ],
      "name": "creditsOf",
      "outputs": [
        {
          "internalType": "uint256",
          "name": "",
          "type": "uint256"
        }
      ],
      "stateMutability": "view",
      "type": "function"
    },
    {
      "inputs": [],
      "name": "domainSeparator",
      "outputs": [
        {
          "internalType": "bytes32",
          "name": "",
          "type": "bytes32"
        }
      ],
      "stateMutability": "view",
      "type": "function"
    },
    {
      "inputs": [],
      "name": "eip712Domain",
      "outputs": [
        {
          "internalType": "bytes1",
          "name": "fields",
          "type": "bytes1"
        },
        {
          "internalType": "string",
          "name": "name",
          "type": "string"
        },
        {
          "internalType": "string",
          "name": "version",
          "type": "string"
        },
        {
          "internalType": "uint256",
          "name": "chainId",
          "type": "uint256"
        },
        {
          "internalType": "address",
          "name": "verifyingContract",
          "type": "address"
        },
        {
          "internalType": "bytes32",
          "name": "salt",
          "type": "bytes32"
        },
        {
          "internalType": "uint256[]",
          "name": "extensions",
          "type": "uint256[]"
        }
      ],
      "stateMutability": "view",
      "type": "function"
    },
    {
      "inputs": [],
      "name": "getAdmins",
      "outputs": [
        {
          "internalType": "address[]",
          "name": "",
          "type": "address[]"
        }
      ],
      "stateMutability": "view",
      "type": "function"
    },
    {
      "inputs": [],
      "name": "getCreditBalance",
      "outputs": [
        {
          "internalType": "uint256",
          "name": "",
          "type": "uint256"
        }
      ],
      "stateMutability": "view",
      "type": "function"
    },
    {
      "inputs": [],
      "name": "getCreditToEth",
      "outputs": [
        {
          "internalType": "uint256",
          "name": "",
          "type": "uint256"
        }
      ],
      "stateMutability": "view",
      "type": "function"
    },
    {
      "inputs": [],
      "name": "getEthToCredit",
      "outputs": [
        {
          "internalType": "uint256",
          "name": "",
          "type": "uint256"
        }
      ],
      "stateMutability": "view",
      "type": "function"
    },
    {
      "inputs": [
        {
          "internalType": "address",
          "name": "rider",
          "type": "address"
        }
      ],
      "name": "getNonce",
      "outputs": [
        {
          "internalType": "uint256",
          "name": "",
          "type": "uint256"
        }
      ],
      "stateMutability": "view",
      "type": "function"
    },
    {
      "inputs": [
        {
          "internalType": "address",
          "name": "operator",
          "type": "address"
        }
      ],
      "name": "getOperator",
      "outputs": [
        {
          "components": [
            {
              "internalType": "bool",
              "name": "whitelisted",
              "type": "bool"
            },
            {
              "internalType": "uint256",
              "name": "price",
              "type": "uint256"
            },
            {
              "internalType": "uint256",
              "name": "totalEarningsInEth",
              "type": "uint256"
            },
            {
              "internalType": "string",
              "name": "name",
              "type": "string"
            }
          ],
          "internalType": "struct MoveChain.Operator",
          "name": "",
          "type": "tuple"
        }
      ],
      "stateMutability": "view",
      "type": "function"
    },
    {
      "inputs": [
        {
          "internalType": "address",
          "name": "operator",
          "type": "address"
        }
      ],
      "name": "getOperatorName",
      "outputs": [
        {
          "internalType": "string",
          "name": "",
          "type": "string"
        }
      ],
      "stateMutability": "view",
      "type": "function"
    },
    {
      "inputs": [
        {
          "internalType": "address",
          "name": "operator",
          "type": "address"
        }
      ],
      "name": "getOperatorPrice",
      "outputs": [
        {
          "internalType": "uint256",
          "name": "",
          "type": "uint256"
        }
      ],
      "stateMutability": "view",
      "type": "function"
    },
    {
      "inputs": [
        {
          "internalType": "address",
          "name": "rider",
          "type": "address"
        }
      ],
      "name": "getTripOperator",
      "outputs": [
        {
          "internalType": "address",
          "name": "",
          "type": "address"
        }
      ],
      "stateMutability": "view",
      "type": "function"
    },
    {
      "inputs": [],
      "name": "getWhitelistedOperators",
      "outputs": [
        {
          "internalType": "address[]",
          "name": "",
          "type": "address[]"
        }
      ],
      "stateMutability": "view",
      "type": "function"
    },
    {
      "inputs": [
        {
          "internalType": "address",
          "name": "",
          "type": "address"
        }
      ],
      "name": "isAdmin",
      "outputs": [
        {
          "internalType": "bool",
          "name": "",
          "type": "bool"
        }
      ],
      "stateMutability": "view",
      "type": "function"
    },
    {
      "inputs": [
        {
          "internalType": "address",
          "name": "rider",
          "type": "address"
        }
      ],
      "name": "isOnTrip",
      "outputs": [
        {
          "internalType": "bool",
          "name": "",
          "type": "bool"
        }
      ],
      "stateMutability": "view",
      "type": "function"
    },
    {
      "inputs": [
        {
          "internalType": "address",
          "name": "",
          "type": "address"
        }
      ],
      "name": "operators",
      "outputs": [
        {
          "internalType": "bool",
          "name": "whitelisted",
          "type": "bool"
        },
        {
          "internalType": "uint256",
          "name": "price",
          "type": "uint256"
        },
        {
          "internalType": "uint256",
          "name": "totalEarningsInEth",
          "type": "uint256"
        },
        {
          "internalType": "string",
          "name": "name",
          "type": "string"
        }
      ],
      "stateMutability": "view",
      "type": "function"
    },
    {
      "inputs": [
        {
          "internalType": "address",
          "name": "operator",
          "type": "address"
        }
      ],
      "name": "removeOperator",
      "outputs": [],
      "stateMutability": "nonpayable",
      "type": "function"
    },
    {
      "inputs": [
        {
          "internalType": "uint256",
          "name": "_creditToEth",
          "type": "uint256"
        }
      ],
      "name": "setCreditToEth",
      "outputs": [],
      "stateMutability": "nonpayable",
      "type": "function"
    },
    {
      "inputs": [
        {
          "internalType": "uint256",
          "name": "_ethToCredit",
          "type": "uint256"
        }
      ],
      "name": "setEthToCredit",
      "outputs": [],
      "stateMutability": "nonpayable",
      "type": "function"
    },
    {
      "inputs": [
        {
          "internalType": "address",
          "name": "operator",
          "type": "address"
        },
        {
          "internalType": "string",
          "name": "_name",
          "type": "string"
        }
      ],
      "name": "setOperatorName",
      "outputs": [],
      "stateMutability": "nonpayable",
      "type": "function"
    },
    {
      "inputs": [
        {
          "internalType": "uint256",
          "name": "_price",
          "type": "uint256"
        }
      ],
      "name": "setTripPrice",
      "outputs": [],
      "stateMutability": "nonpayable",
      "type": "function"
    },
    {
      "inputs": [
        {
          "internalType": "address",
          "name": "rider",
          "type": "address"
        },
        {
          "internalType": "uint256",
          "name": "deadline",
          "type": "uint256"
        },
        {
          "internalType": "bytes",
          "name": "signature",
          "type": "bytes"
        }
      ],
      "name": "startTrip",
      "outputs": [],
      "stateMutability": "nonpayable",
      "type": "function"
    },
    {
      "inputs": [
        {
          "internalType": "uint256",
          "name": "amount",
          "type": "uint256"
        }
      ],
      "name": "withdrawCredits",
      "outputs": [],
      "stateMutability": "nonpayable",
      "type": "function"
    }
  ],
  "bytecode": "0x610160604052348015610010575f5ffd5b50604051612c5f380380612c5f83398101604081905261002f91610364565b604080518082018252600981526826b7bb32a1b430b4b760b91b602080830191909152825180840190935260018352603160f81b9083015290610072825f6101b0565b610120526100818160016101b0565b61014052815160208084019190912060e052815190820120610100524660a05261010d60e05161010051604080517f8b73c3c69bb8fe3d512ecc4cf759cc79239f7b179b0ffacaa9a75d522b39400f60208201529081019290925260608201524660808201523060a08201525f9060c00160405160208183030381529060405280519060200120905090565b60805250503060c0526001600160a01b0381166101605760405162461bcd60e51b815260206004820152600c60248201526b7a65726f206164647265737360a01b60448201526064015b60405180910390fd5b610169846101e2565b610172836101e2565b61017b826101e2565b600480546001600160a01b0319166001600160a01b039290921691909117905550506305f5e10060068190556005555061055f565b5f6020835110156101cb576101c48361030c565b90506101dc565b816101d6848261044d565b5060ff90505b92915050565b6001600160a01b0381166102275760405162461bcd60e51b815260206004820152600c60248201526b7a65726f206164647265737360a01b6044820152606401610157565b6001600160a01b0381165f9081526002602052604090205460ff161561027f5760405162461bcd60e51b815260206004820152600d60248201526c20b63932b0b23c9030b236b4b760991b6044820152606401610157565b6001600160a01b0381165f81815260026020526040808220805460ff1916600190811790915560038054918201815583527fc2575a0e9e593c00f959f8c92f12db2869c3395a3b0502d05e2516446f71f85b0180546001600160a01b03191684179055513392917f6e92e50bc6eae7d9562ef8a2da2be3e9a631c1a8178c8bad0ad5cc35455550ec91a350565b5f5f829050601f81511115610336578260405163305a27a960e01b81526004016101579190610507565b80516103418261053c565b179392505050565b80516001600160a01b038116811461035f575f5ffd5b919050565b5f5f5f5f60808587031215610377575f5ffd5b61038085610349565b935061038e60208601610349565b925061039c60408601610349565b91506103aa60608601610349565b905092959194509250565b634e487b7160e01b5f52604160045260245ffd5b600181811c908216806103dd57607f821691505b6020821081036103fb57634e487b7160e01b5f52602260045260245ffd5b50919050565b601f82111561044857805f5260205f20601f840160051c810160208510156104265750805b601f840160051c820191505b81811015610445575f8155600101610432565b50505b505050565b81516001600160401b03811115610466576104666103b5565b61047a8161047484546103c9565b84610401565b6020601f8211600181146104ac575f83156104955750848201515b5f19600385901b1c1916600184901b178455610445565b5f84815260208120601f198516915b828110156104db57878501518255602094850194600190920191016104bb565b50848210156104f857868401515f19600387901b60f8161c191681555b50505050600190811b01905550565b602081525f82518060208401528060208501604085015e5f604082850101526040601f19601f83011684010191505092915050565b805160208083015191908110156103fb575f1960209190910360031b1b16919050565b60805160a05160c05160e0516101005161012051610140516126af6105b05f395f611abd01525f611a9101525f611d2701525f611cff01525f611c5a01525f611c8401525f611cae01526126af5ff3fe6080604052600436106101ba575f3560e01c80633fc1f5ca116100f2578063a0e0ce3d11610092578063b83a47bf11610062578063b83a47bf1461054f578063d038c4571461056e578063f2015bf31461058d578063f698da25146105ac575f5ffd5b8063a0e0ce3d146104c6578063a79935b0146104f2578063ac8a584a14610511578063b21d976614610530575f5ffd5b806370480275116100cd57806370480275146104285780637bda027b1461044757806384b0196e146104805780639aeee8ab146104a7575f5ffd5b80633fc1f5ca146103d5578063495c8bf9146103e85780635865c60c146103fc575f5ffd5b80632897d07e1161015d578063359dd21911610138578063359dd2191461037a57806336da26e01461038e57806339f7105e146103a25780633cfd4d1c146103c1575f5ffd5b80632897d07e146102ff5780632d0335ab1461032557806331ae450b14610359575f5ffd5b806313e7c9d81161019857806313e7c9d8146102465780631b59bad914610275578063245a45b51461029457806324d7806c146102c1575f5ffd5b8063064a8b36146101be57806309ed1782146102125780630c4dfe3f14610233575b5f5ffd5b3480156101c9575f5ffd5b506101f56101d83660046120c1565b6001600160a01b039081165f908152600960205260409020541690565b6040516001600160a01b0390911681526020015b60405180910390f35b34801561021d575f5ffd5b5061023161022c3660046120e1565b6105c0565b005b6102316102413660046120e1565b610804565b348015610251575f5ffd5b506102656102603660046120c1565b6108c2565b6040516102099493929190612126565b348015610280575f5ffd5b5061023161028f36600461219b565b610976565b34801561029f575f5ffd5b506102b36102ae3660046120c1565b610b8d565b604051908152602001610209565b3480156102cc575f5ffd5b506102ef6102db3660046120c1565b60026020525f908152604090205460ff1681565b6040519015158152602001610209565b34801561030a575f5ffd5b50610313600181565b60405160ff9091168152602001610209565b348015610330575f5ffd5b506102b361033f3660046120c1565b6001600160a01b03165f908152600b602052604090205490565b348015610364575f5ffd5b5061036d610c04565b60405161020991906121f1565b348015610385575f5ffd5b506006546102b3565b348015610399575f5ffd5b506102b3610c64565b3480156103ad575f5ffd5b506102316103bc3660046120e1565b610cd8565b3480156103cc575f5ffd5b506005546102b3565b3480156103e0575f5ffd5b506103135f81565b3480156103f3575f5ffd5b5061036d610d0b565b348015610407575f5ffd5b5061041b6104163660046120c1565b610d69565b604051610209919061223c565b348015610433575f5ffd5b506102316104423660046120c1565b610e76565b348015610452575f5ffd5b506102ef6104613660046120c1565b6001600160a01b039081165f9081526009602052604090205416151590565b34801561048b575f5ffd5b50610494610eb0565b604051610209979695949392919061227e565b3480156104b2575f5ffd5b506102316104c13660046120e1565b610ef2565b3480156104d1575f5ffd5b506104e56104e03660046120c1565b610f25565b6040516102099190612314565b3480156104fd575f5ffd5b5061023161050c3660046120e1565b610fd1565b34801561051c575f5ffd5b5061023161052b3660046120c1565b611018565b34801561053b575f5ffd5b506102b361054a3660046120c1565b6111c5565b34801561055a575f5ffd5b5061023161056936600461219b565b61123d565b348015610579575f5ffd5b5061023161058836600461219b565b6114b8565b348015610598575f5ffd5b506102316105a7366004612326565b61185a565b3480156105b7575f5ffd5b506102b3611957565b335f9081526007602052604090205460ff1615156001146105fc5760405162461bcd60e51b81526004016105f390612375565b60405180910390fd5b60048054604051631db374fb60e11b815233928101929092526001600160a01b031690633b66e9f690602401602060405180830381865afa158015610643573d5f5f3e3d5ffd5b505050506040513d601f19601f8201168201806040525081019061066791906123ac565b8111156106ab5760405162461bcd60e51b81526020600482015260126024820152714e6f7420656e6f756768204372656469747360701b60448201526064016105f3565b600480546040516306d1b42d60e31b81523392810192909252602482018390526001600160a01b03169063368da168906044015f604051808303815f87803b1580156106f5575f5ffd5b505af1158015610707573d5f5f3e3d5ffd5b505050505f8160065461071a91906123d7565b6040519091505f90339083908381818185875af1925050503d805f811461075c576040519150601f19603f3d011682016040523d82523d5f602084013e610761565b606091505b50509050806107a45760405162461bcd60e51b815260206004820152600f60248201526e151c985b9cd9995c8819985a5b1959608a1b60448201526064016105f3565b335f90815260076020526040812060020180548492906107c59084906123ee565b909155505060405183815233907ff673c6be690a269f82e6de3672451eeca487c067c59bd506dfb8612af7aeccb39060200160405180910390a2505050565b60055461081190826123d7565b341461085f5760405162461bcd60e51b815260206004820152601f60248201527f4e6f7420656e6f756768206f7220746f6f206d756368204554482073656e740060448201526064016105f3565b6004805460405163871ff40560e01b81523392810192909252602482018390526001600160a01b03169063871ff405906044015f604051808303815f87803b1580156108a9575f5ffd5b505af11580156108bb573d5f5f3e3d5ffd5b5050505050565b60076020525f9081526040902080546001820154600283015460038401805460ff9094169492939192916108f590612401565b80601f016020809104026020016040519081016040528092919081815260200182805461092190612401565b801561096c5780601f106109435761010080835404028352916020019161096c565b820191905f5260205f20905b81548152906001019060200180831161094f57829003601f168201915b5050505050905084565b335f9081526002602052604090205460ff166109a45760405162461bcd60e51b81526004016105f390612439565b6001600160a01b0384166109e95760405162461bcd60e51b815260206004820152600c60248201526b7a65726f206164647265737360a01b60448201526064016105f3565b80610a265760405162461bcd60e51b815260206004820152600d60248201526c1b985b59481c995c5d5a5c9959609a1b60448201526064016105f3565b6001600160a01b0384165f9081526007602052604090205460ff1615610a8e5760405162461bcd60e51b815260206004820152601c60248201527f4f70657261746f7220616c72656164792077686974656c69737465640000000060448201526064016105f3565b60405180608001604052806001151581526020018481526020015f815260200183838080601f0160208091040260200160405190810160405280939291908181526020018383808284375f9201829052509390945250506001600160a01b0387168152600760209081526040918290208451815460ff191690151517815590840151600182015590830151600282015560608301519091506003820190610b3590826124b5565b5050600880546001810182555f919091527ff3f7a9fe364faab93b216da50a3214154f22a0a2b415b23a84c8169e8b636ee30180546001600160a01b0319166001600160a01b03969096169590951790945550505050565b60048054604051631db374fb60e11b81526001600160a01b03848116938201939093525f9290911690633b66e9f690602401602060405180830381865afa158015610bda573d5f5f3e3d5ffd5b505050506040513d601f19601f82011682018060405250810190610bfe91906123ac565b92915050565b60606003805480602002602001604051908101604052809291908181526020018280548015610c5a57602002820191905f5260205f20905b81546001600160a01b03168152600190910190602001808311610c3c575b5050505050905090565b60048054604051631db374fb60e11b815233928101929092525f916001600160a01b0390911690633b66e9f690602401602060405180830381865afa158015610caf573d5f5f3e3d5ffd5b505050506040513d601f19601f82011682018060405250810190610cd391906123ac565b905090565b335f9081526002602052604090205460ff16610d065760405162461bcd60e51b81526004016105f390612439565b600555565b60606008805480602002602001604051908101604052809291908181526020018280548015610c5a57602002820191905f5260205f209081546001600160a01b03168152600190910190602001808311610c3c575050505050905090565b610d9360405180608001604052805f151581526020015f81526020015f8152602001606081525090565b6001600160a01b0382165f908152600760209081526040918290208251608081018452815460ff1615158152600182015492810192909252600281015492820192909252600382018054919291606084019190610def90612401565b80601f0160208091040260200160405190810160405280929190818152602001828054610e1b90612401565b8015610e665780601f10610e3d57610100808354040283529160200191610e66565b820191905f5260205f20905b815481529060010190602001808311610e4957829003601f168201915b5050505050815250509050919050565b335f9081526002602052604090205460ff16610ea45760405162461bcd60e51b81526004016105f390612439565b610ead81611960565b50565b5f6060805f5f5f6060610ec1611a8a565b610ec9611ab6565b604080515f80825260208201909252600f60f81b9b939a50919850469750309650945092509050565b335f9081526002602052604090205460ff16610f205760405162461bcd60e51b81526004016105f390612439565b600655565b6001600160a01b0381165f908152600760205260409020600301805460609190610f4e90612401565b80601f0160208091040260200160405190810160405280929190818152602001828054610f7a90612401565b8015610fc55780601f10610f9c57610100808354040283529160200191610fc5565b820191905f5260205f20905b815481529060010190602001808311610fa857829003601f168201915b50505050509050919050565b335f9081526007602052604090205460ff1615156001146110045760405162461bcd60e51b81526004016105f390612375565b335f90815260076020526040902060010155565b335f9081526002602052604090205460ff166110465760405162461bcd60e51b81526004016105f390612439565b6001600160a01b0381165f9081526007602052604090205460ff166110ad5760405162461bcd60e51b815260206004820152601c60248201527f4f70657261746f72206973206e6f74206f6e2077686974656c6973740000000060448201526064016105f3565b6001600160a01b0381165f908152600760205260408120805460ff19169055600854905b818110156111c057826001600160a01b0316600882815481106110f6576110f6612570565b5f918252602090912001546001600160a01b0316036111b857600861111c600184612584565b8154811061112c5761112c612570565b5f91825260209091200154600880546001600160a01b03909216918390811061115757611157612570565b905f5260205f20015f6101000a8154816001600160a01b0302191690836001600160a01b03160217905550600880548061119357611193612597565b5f8281526020902081015f1990810180546001600160a01b0319169055019055505050565b6001016110d1565b505050565b6001600160a01b0381165f9081526007602052604081205460ff1661121f5760405162461bcd60e51b815260206004820152601060248201526f24b73b30b634b21027b832b930ba37b960811b60448201526064016105f3565b506001600160a01b03165f9081526007602052604090206001015490565b335f9081526007602052604090205460ff1615156001146112705760405162461bcd60e51b81526004016105f390612375565b824211156112b85760405162461bcd60e51b8152602060048201526015602482015274105d5d1a1bdc9a5e985d1a5bdb88195e1c1a5c9959605a1b60448201526064016105f3565b6001600160a01b038481165f90815260096020526040902054161561131f5760405162461bcd60e51b815260206004820152601a60248201527f526964657220697320616c7265616479206f6e2061207472697000000000000060448201526064016105f3565b335f908152600760205260409081902060010154600480549251631db374fb60e11b81526001600160a01b038881169282019290925291921690633b66e9f690602401602060405180830381865afa15801561137d573d5f5f3e3d5ffd5b505050506040513d601f19601f820116820180604052508101906113a191906123ac565b10156113f95760405162461bcd60e51b815260206004820152602160248201527f526964657220646f65736e2774206861766520656e6f756768204372656469746044820152607360f81b60648201526084016105f3565b61140784335f868686611ae3565b6040805180820182526001600160a01b038087168083523360208085018281525f838152600a8352878120805460018181018355918352848320895160029092020180549189166001600160a01b0319928316178155935193909101805493909716928116929092179095558385526009909152858420805490911682179055935192939290917f8381a2d14c69e68030310de1fef6abbd0d15075345d41ba5cc0f0a9cc0c25d4891a35050505050565b335f9081526007602052604090205460ff1615156001146114eb5760405162461bcd60e51b81526004016105f390612375565b824211156115335760405162461bcd60e51b8152602060048201526015602482015274105d5d1a1bdc9a5e985d1a5bdb88195e1c1a5c9959605a1b60448201526064016105f3565b6001600160a01b038481165f90815260096020526040902054166115925760405162461bcd60e51b815260206004820152601660248201527505269646572206973206e6f74206f6e206120747269760541b60448201526064016105f3565b6115a184336001868686611ae3565b6001600160a01b0384165f90815260096020908152604080832080546001600160a01b0319169055338352600a9091528120815b81548110156116ec57866001600160a01b03168282815481106115fa576115fa612570565b5f9182526020909120600290910201546001600160a01b0316036116e4578154829061162890600190612584565b8154811061163857611638612570565b905f5260205f20906002020182828154811061165657611656612570565b5f9182526020909120825460029092020180546001600160a01b039283166001600160a01b031991821617825560019384015493909101805493909216921691909117905581548290806116ac576116ac612597565b5f8281526020902060025f199092019182020180546001600160a01b03199081168255600191820180549091169055915592506116ec565b6001016115d5565b508161173a5760405162461bcd60e51b815260206004820152601e60248201527f4e6f206f70656e207472697020666f722074686973206f70657261746f72000060448201526064016105f3565b335f9081526007602052604090819020600101546004805492516306d1b42d60e31b81526001600160a01b038a811692820192909252602481018390529192169063368da168906044015f604051808303815f87803b15801561179b575f5ffd5b505af11580156117ad573d5f5f3e3d5ffd5b50506004805460405163871ff40560e01b81523392810192909252602482018590526001600160a01b0316925063871ff40591506044015f604051808303815f87803b1580156117fb575f5ffd5b505af115801561180d573d5f5f3e3d5ffd5b50506040518381523392506001600160a01b038a1691507f705b4a117784db6899e1b2071df6031bd964955f1014b62b466271fa6d45c6979060200160405180910390a350505050505050565b335f9081526002602052604090205460ff166118885760405162461bcd60e51b81526004016105f390612439565b6001600160a01b0383165f9081526007602052604090205460ff166118ef5760405162461bcd60e51b815260206004820152601c60248201527f4f70657261746f72206973206e6f74206f6e2077686974656c6973740000000060448201526064016105f3565b8061192c5760405162461bcd60e51b815260206004820152600d60248201526c1b985b59481c995c5d5a5c9959609a1b60448201526064016105f3565b6001600160a01b0383165f9081526007602052604090206003016119518284836125ab565b50505050565b5f610cd3611c4e565b6001600160a01b0381166119a55760405162461bcd60e51b815260206004820152600c60248201526b7a65726f206164647265737360a01b60448201526064016105f3565b6001600160a01b0381165f9081526002602052604090205460ff16156119fd5760405162461bcd60e51b815260206004820152600d60248201526c20b63932b0b23c9030b236b4b760991b60448201526064016105f3565b6001600160a01b0381165f81815260026020526040808220805460ff1916600190811790915560038054918201815583527fc2575a0e9e593c00f959f8c92f12db2869c3395a3b0502d05e2516446f71f85b0180546001600160a01b03191684179055513392917f6e92e50bc6eae7d9562ef8a2da2be3e9a631c1a8178c8bad0ad5cc35455550ec91a350565b6060610cd37f00000000000000000000000000000000000000000000000000000000000000005f611d77565b6060610cd37f00000000000000000000000000000000000000000000000000000000000000006001611d77565b6001600160a01b038681165f818152600b602090815260408083205481517f835fe5af4093c5c42ab6817abbbbd00c19535b1d608d011396d46709c9a5aa798185015280830195909552948a16606085015260ff8916608085015260a084019490945260c08084018890528451808503909101815260e09093019093528151919092012090611b7182611e21565b90505f611bb38286868080601f0160208091040260200160405190810160405280939291908181526020018383808284375f92019190915250611e4d92505050565b9050886001600160a01b0316816001600160a01b031614611c165760405162461bcd60e51b815260206004820152601760248201527f496e76616c6964207269646572207369676e617475726500000000000000000060448201526064016105f3565b6001600160a01b0389165f908152600b60205260408120805460019290611c3e9084906123ee565b9091555050505050505050505050565b5f306001600160a01b037f000000000000000000000000000000000000000000000000000000000000000016148015611ca657507f000000000000000000000000000000000000000000000000000000000000000046145b15611cd057507f000000000000000000000000000000000000000000000000000000000000000090565b610cd3604080517f8b73c3c69bb8fe3d512ecc4cf759cc79239f7b179b0ffacaa9a75d522b39400f60208201527f0000000000000000000000000000000000000000000000000000000000000000918101919091527f000000000000000000000000000000000000000000000000000000000000000060608201524660808201523060a08201525f9060c00160405160208183030381529060405280519060200120905090565b606060ff8314611d9157611d8a83611e75565b9050610bfe565b818054611d9d90612401565b80601f0160208091040260200160405190810160405280929190818152602001828054611dc990612401565b8015611e145780601f10611deb57610100808354040283529160200191611e14565b820191905f5260205f20905b815481529060010190602001808311611df757829003601f168201915b5050505050905092915050565b5f610bfe611e2d611c4e565b8360405161190160f01b8152600281019290925260228201526042902090565b5f5f5f5f611e5b8686611eb2565b925092509250611e6b8282611efb565b5090949350505050565b60605f611e8183611fb7565b6040805160208082528183019092529192505f91906020820181803683375050509182525060208101929092525090565b5f5f5f8351604103611ee9576020840151604085015160608601515f1a611edb88828585611fde565b955095509550505050611ef4565b505081515f91506002905b9250925092565b5f826003811115611f0e57611f0e612665565b03611f17575050565b6001826003811115611f2b57611f2b612665565b03611f495760405163f645eedf60e01b815260040160405180910390fd5b6002826003811115611f5d57611f5d612665565b03611f7e5760405163fce698f760e01b8152600481018290526024016105f3565b6003826003811115611f9257611f92612665565b03611fb3576040516335e2f38360e21b8152600481018290526024016105f3565b5050565b5f60ff8216601f811115610bfe57604051632cd44ac360e21b815260040160405180910390fd5b5f80807f7fffffffffffffffffffffffffffffff5d576e7357a4501ddfe92f46681b20a084111561201757505f9150600390508261209c565b604080515f808252602082018084528a905260ff891692820192909252606081018790526080810186905260019060a0016020604051602081039080840390855afa158015612068573d5f5f3e3d5ffd5b5050604051601f1901519150506001600160a01b03811661209357505f92506001915082905061209c565b92505f91508190505b9450945094915050565b80356001600160a01b03811681146120bc575f5ffd5b919050565b5f602082840312156120d1575f5ffd5b6120da826120a6565b9392505050565b5f602082840312156120f1575f5ffd5b5035919050565b5f81518084528060208401602086015e5f602082860101526020601f19601f83011685010191505092915050565b8415158152836020820152826040820152608060608201525f61214c60808301846120f8565b9695505050505050565b5f5f83601f840112612166575f5ffd5b50813567ffffffffffffffff81111561217d575f5ffd5b602083019150836020828501011115612194575f5ffd5b9250929050565b5f5f5f5f606085870312156121ae575f5ffd5b6121b7856120a6565b935060208501359250604085013567ffffffffffffffff8111156121d9575f5ffd5b6121e587828801612156565b95989497509550505050565b602080825282518282018190525f918401906040840190835b818110156122315783516001600160a01b031683526020938401939092019160010161220a565b509095945050505050565b6020815281511515602082015260208201516040820152604082015160608201525f606083015160808084015261227660a08401826120f8565b949350505050565b60ff60f81b8816815260e060208201525f61229c60e08301896120f8565b82810360408401526122ae81896120f8565b606084018890526001600160a01b038716608085015260a0840186905283810360c0850152845180825260208087019350909101905f5b818110156123035783518352602093840193909201916001016122e5565b50909b9a5050505050505050505050565b602081525f6120da60208301846120f8565b5f5f5f60408486031215612338575f5ffd5b612341846120a6565b9250602084013567ffffffffffffffff81111561235c575f5ffd5b61236886828701612156565b9497909650939450505050565b60208082526019908201527f4f6e6c792077686974656c6973746564206f70657261746f7200000000000000604082015260600190565b5f602082840312156123bc575f5ffd5b5051919050565b634e487b7160e01b5f52601160045260245ffd5b8082028115828204841417610bfe57610bfe6123c3565b80820180821115610bfe57610bfe6123c3565b600181811c9082168061241557607f821691505b60208210810361243357634e487b7160e01b5f52602260045260245ffd5b50919050565b6020808252600a908201526927b7363c9030b236b4b760b11b604082015260600190565b634e487b7160e01b5f52604160045260245ffd5b601f8211156111c057805f5260205f20601f840160051c810160208510156124965750805b601f840160051c820191505b818110156108bb575f81556001016124a2565b815167ffffffffffffffff8111156124cf576124cf61245d565b6124e3816124dd8454612401565b84612471565b6020601f821160018114612515575f83156124fe5750848201515b5f19600385901b1c1916600184901b1784556108bb565b5f84815260208120601f198516915b828110156125445787850151825560209485019460019092019101612524565b508482101561256157868401515f19600387901b60f8161c191681555b50505050600190811b01905550565b634e487b7160e01b5f52603260045260245ffd5b81810381811115610bfe57610bfe6123c3565b634e487b7160e01b5f52603160045260245ffd5b67ffffffffffffffff8311156125c3576125c361245d565b6125d7836125d18354612401565b83612471565b5f601f841160018114612608575f85156125f15750838201355b5f19600387901b1c1916600186901b1783556108bb565b5f83815260208120601f198716915b828110156126375786850135825560209485019460019092019101612617565b5086821015612653575f1960f88860031b161c19848701351681555b505060018560011b0183555050505050565b634e487b7160e01b5f52602160045260245ffdfea2646970667358221220f86cc9bd70a7b3ed0ce0c8358215682af6aa9c1dd446d1a3e68d90863617e05c64736f6c634300081c0033",
  "linkReferences": {},
  "deployedLinkReferences": {},
  "immutableReferences": {
    "6432": [
      {
        "length": 32,
        "start": 7342
      }
    ],
    "6434": [
      {
        "length": 32,
        "start": 7300
      }
    ],
    "6436": [
      {
        "length": 32,
        "start": 7258
      }
    ],
    "6438": [
      {
        "length": 32,
        "start": 7423
      }
    ],
    "6440": [
      {
        "length": 32,
        "start": 7463
      }
    ],
    "6443": [
      {
        "length": 32,
        "start": 6801
      }
    ],
    "6446": [
      {
        "length": 32,
        "start": 6845
      }
    ]
  },
  "inputSourceName": "project/contracts/MoveChain.sol",
  "buildInfoId": "solc-0_8_28-7509954a4f5541de15176f57c9083228191c52cd"
}