{
  "_format": "hh3-artifact-1",
  "contractName": "TripCredits",
  "sourceName": "contracts/TripCredits.sol",
  "abi": [
    {
      "inputs": [],
      "stateMutability": "nonpayable",
      "type": "constructor"
    },
    {
      "inputs": [
        {
          "internalType": "address",
          "name": "sender",
          "type": "address"
        },
        {
          "internalType": "uint256",
          "name": "balance",
          "type": "uint256"
        },
        {
          "internalType": "uint256",
          "name": "needed",
          "type": "uint256"
        },
        {
          "internalType": "uint256",
          "name": "tokenId",
          "type": "uint256"
        }
      ],
      "name": "ERC1155InsufficientBalance",
      "type": "error"
    },
    {
      "inputs": [
        {
          "internalType": "address",
          "name": "approver",
          "type": "address"
        }
      ],
      "name": "ERC1155InvalidApprover",
      "type": "error"
    },
    {
      "inputs": [
        {
          "internalType": "uint256",
          "name": "idsLength",
          "type": "uint256"
        },
        {
          "internalType": "uint256",
          "name": "valuesLength",
          "type": "uint256"
        }
      ],
      "name": "ERC1155InvalidArrayLength",
      "type": "error"
    },
    {
      "inputs": [
        {
          "internalType": "address",
          "name": "operator",
          "type": "address"
        }
      ],
      "name": "ERC1155InvalidOperator",
      "type": "error"
    },
    {
      "inputs": [
        {
          "internalType": "address",
          "name": "receiver",
          "type": "address"
        }
      ],
      "name": "ERC1155InvalidReceiver",
      "type": "error"
    },
    {
      "inputs": [
        {
          "internalType": "address",
          "name": "sender",
          "type": "address"
        }
      ],
      "name": "ERC1155InvalidSender",
      "type": "error"
    },
    {
      "inputs": [
        {
          "internalType": "address",
          "name": "operator",
          "type": "address"
        },
        {
          "internalType": "address",
          "name": "owner",
          "type": "address"
        }
      ],
      "name": "ERC1155MissingApprovalForAll",
      "type": "error"
    },
    {
      "anonymous": false,
      "inputs": [
        {
          "indexed": true,
          "internalType": "address",
          "name": "account",
          "type": "address"
        },
        {
          "indexed": true,
          "internalType": "address",
          "name": "operator",
          "type": "address"
        },
        {
          "indexed": false,
          "internalType": "bool",
          "name": "approved",
          "type": "bool"
        }
      ],
      "name": "ApprovalForAll",
      "type": "event"
    },
    {
      "anonymous": false,
      "inputs": [
        {
          "indexed": true,
          "internalType": "address",
          "name": "operator",
          "type": "address"
        },
        {
          "indexed": true,
          "internalType": "address",
          "name": "from",
          "type": "address"
        },
        {
          "indexed": true,
          "internalType": "address",
          "name": "to",
          "type": "address"
        },
        {
          "indexed": false,
          "internalType": "uint256[]",
          "name": "ids",
          "type": "uint256[]"
        },
        {
          "indexed": false,
          "internalType": "uint256[]",
          "name": "values",
          "type": "uint256[]"
        }
      ],
      "name": "TransferBatch",
      "type": "event"
    },
    {
      "anonymous": false,
      "inputs": [
        {
          "indexed": true,
          "internalType": "address",
          "name": "operator",
          "type": "address"
        },
        {
          "indexed": true,
          "internalType": "address",
          "name": "from",
          "type": "address"
        },
        {
          "indexed": true,
          "internalType": "address",
          "name": "to",
          "type": "address"
        },
        {
          "indexed": false,
          "internalType": "uint256",
          "name": "id",
          "type": "uint256"
        },
        {
          "indexed": false,
          "internalType": "uint256",
          "name": "value",
          "type": "uint256"
        }
      ],
      "name": "TransferSingle",
      "type": "event"
    },
    {
      "anonymous": false,
      "inputs": [
        {
          "indexed": false,
          "internalType": "string",
          "name": "value",
          "type": "string"
        },
        {
          "indexed": true,
          "internalType": "uint256",
          "name": "id",
          "type": "uint256"
        }
      ],
      "name": "URI",
      "type": "event"
    },
    {
      "inputs": [
        {
          "internalType": "address",
          "name": "to",
          "type": "address"
        },
        {
          "internalType": "uint256",
          "name": "amount",
          "type": "uint256"
        }
      ],
      "name": "addCredits",
      "outputs": [],
      "stateMutability": "nonpayable",
      "type": "function"
    },
    {
      "inputs": [
        {
          "internalType": "address",
          "name": "account",
          "type": "address"
        },
        {
          "internalType": "uint256",
          "name": "id",
          "type": "uint256"
        }
      ],
      "name": "balanceOf",
      "outputs": [
        {
          "internalType": "uint256",
          "name": "",
          "type": "uint256"
        }
      ],
      "stateMutability": "view",
      "type": "function"
    },
    {
      "inputs": [
        {
          "internalType": "address[]",
          "name": "accounts",
          "type": "address[]"
        },
        {
          "internalType": "uint256[]",
          "name": "ids",
          "type": "uint256[]"
        }
      ],
      "name": "balanceOfBatch",
      "outputs": [
        {
          "internalType": "uint256[]",
          "name": "",
          "type": "uint256[]"
        }
      ],
      "stateMutability": "view",
      "type": "function"
    },
    {
      "inputs": [
        {
          "internalType": "address",
          "name": "account",
          "type": "address"
        }
      ],
      "name": "getCredits",
      "outputs": [
        {
          "internalType": "uint256",
          "name": "",
          "type": "uint256"
        }
      ],
      "stateMutability": "view",
      "type": "function"
    },
    {
      "inputs": [
        {
          "internalType": "address",
          "name": "account",
          "type": "address"
        },
        {
          "internalType": "address",
          "name": "operator",
          "type": "address"
        }
      ],
      "name": "isApprovedForAll",
      "outputs": [
        {
          "internalType": "bool",
          "name": "",
          "type": "bool"
        }
      ],
      "stateMutability": "view",
      "type": "function"
    },
    {
      "inputs": [
        {
          "internalType": "address",
          "name": "from",
          "type": "address"
        },
        {
          "internalType": "uint256",
          "name": "amount",
          "type": "uint256"
        }
      ],
      "name": "removeCredits",
      "outputs": [],
      "stateMutability": "nonpayable",
      "type": "function"
    },
    {
      "inputs": [
        {
          "internalType": "address",
          "name": "from",
          "type": "address"
        },
        {
          "internalType": "address",
          "name": "to",
          "type": "address"
        },
        {
          "internalType": "uint256[]",
          "name": "ids",
          "type": "uint256[]"
        },
        {
          "internalType": "uint256[]",
          "name": "values",
          "type": "uint256[]"
        },
        {
          "internalType": "bytes",
          "name": "data",
          "type": "bytes"
        }
      ],
      "name": "safeBatchTransferFrom",
      "outputs": [],
      "stateMutability": "nonpayable",
      "type": "function"
    },
    {
      "inputs": [
        {
          "internalType": "address",
          "name": "from",
          "type": "address"
        },
        {
          "internalType": "address",
          "name": "to",
          "type": "address"
        },
        {
          "internalType": "uint256",
          "name": "id",
          "type": "uint256"
        },
        {
          "internalType": "uint256",
          "name": "value",
          "type": "uint256"
        },
        {
          "internalType": "bytes",
          "name": "data",
          "type": "bytes"
        }
      ],
      "name": "safeTransferFrom",
      "outputs": [],
      "stateMutability": "nonpayable",
      "type": "function"
    },
    {
      "inputs": [
        {
          "internalType": "address",
          "name": "operator",
          "type": "address"
        },
        {
          "internalType": "bool",
          "name": "approved",
          "type": "bool"
        }
      ],
      "name": "setApprovalForAll",
      "outputs": [],
      "stateMutability": "nonpayable",
      "type": "function"
    },
    {
      "inputs": [
        {
          "internalType": "address",
          "name": "_platform",
          "type": "address"
        }
      ],
      "name": "setPlatform",
      "outputs": [],
      "stateMutability": "nonpayable",
      "type": "function"
    },
    {
      "inputs": [
        {
          "internalType": "bytes4",
          "name": "interfaceId",
          "type": "bytes4"
        }
      ],
      "name": "supportsInterface",
      "outputs": [
        {
          "internalType": "bool",
          "name": "",
          "type": "bool"
        }
      ],
      "stateMutability": "view",
      "type": "function"
    },
    {
      "inputs": [
        {
          "internalType": "uint256",
          "name": "",
          "type": "uint256"
        }
      ],
      "name": "uri",
      "outputs": [
        {
          "internalType": "string",
          "name": "",
          "type": "string"
        }
      ],
      "stateMutability": "view",
      "type": "function"
    }
  ],
  "bytecode": "0x608060405234801561000f575f5ffd5b5060408051602081019091525f81526100278161003f565b50600380546001600160a01b031916331790556101a1565b600261004b82826100e7565b5050565b634e487b7160e01b5f52604160045260245ffd5b600181811c9082168061007757607f821691505b60208210810361009557634e487b7160e01b5f52602260045260245ffd5b50919050565b601f8211156100e257805f5260205f20601f840160051c810160208510156100c05750805b601f840160051c820191505b818110156100df575f81556001016100cc565b50505b505050565b81516001600160401b038111156101005761010061004f565b6101148161010e8454610063565b8461009b565b6020601f821160018114610146575f831561012f5750848201515b5f19600385901b1c1916600184901b1784556100df565b5f84815260208120601f198516915b828110156101755787850151825560209485019460019092019101610155565b508482101561019257868401515f19600387901b60f8161c191681555b50505050600190811b01905550565b611253806101ae5f395ff3fe608060405234801561000f575f5ffd5b50600436106100b0575f3560e01c80634e1273f41161006e5780634e1273f4146101585780636945c5ea14610178578063871ff4051461018b578063a22cb4651461019e578063e985e9c5146101b1578063f242432a146101ec575f5ffd5b8062fdd58e146100b457806301ffc9a7146100da5780630e89341c146100fd5780632eb2c2d61461011d578063368da168146101325780633b66e9f614610145575b5f5ffd5b6100c76100c2366004610c3d565b6101ff565b6040519081526020015b60405180910390f35b6100ed6100e8366004610c7d565b610226565b60405190151581526020016100d1565b61011061010b366004610c9f565b610275565b6040516100d19190610ce4565b61013061012b366004610e34565b610307565b005b610130610140366004610c3d565b610326565b6100c7610153366004610ee3565b61034b565b61016b610166366004610efc565b610372565b6040516100d19190610ff9565b610130610186366004610ee3565b610442565b610130610199366004610c3d565b61047a565b6101306101ac36600461100b565b6104aa565b6100ed6101bf366004611044565b6001600160a01b039182165f90815260016020908152604080832093909416825291909152205460ff1690565b6101306101fa366004611075565b6104b5565b5f818152602081815260408083206001600160a01b03861684529091529020545b92915050565b5f6001600160e01b03198216636cdb3d1360e11b148061025657506001600160e01b031982166303a24d0760e21b145b8061022057506301ffc9a760e01b6001600160e01b0319831614610220565b606060028054610284906110c9565b80601f01602080910402602001604051908101604052809291908181526020018280546102b0906110c9565b80156102fb5780601f106102d2576101008083540402835291602001916102fb565b820191905f5260205f20905b8154815290600101906020018083116102de57829003601f168201915b50505050509050919050565b610312335b866104cb565b61031f8585858585610543565b5050505050565b6004546001600160a01b0316331461033c575f5ffd5b610347825f836105a3565b5050565b6004545f906001600160a01b03163314610363575f5ffd5b610220825f6101ff565b919050565b606081518351146103a85781518351604051635b05999160e01b8152600481019290925260248201526044015b60405180910390fd5b5f835167ffffffffffffffff8111156103c3576103c3610cf6565b6040519080825280602002602001820160405280156103ec578160200160208202803683370190505b5090505f5b845181101561043a57602080820286010151610415906020808402870101516101ff565b82828151811061042757610427611101565b60209081029190910101526001016103f1565b509392505050565b6003546001600160a01b03163314610458575f5ffd5b600480546001600160a01b0319166001600160a01b0392909216919091179055565b6004546001600160a01b03163314610490575f5ffd5b610347825f8360405180602001604052805f81525061060a565b61034733838361066e565b6104be3361030c565b61031f858585858561072b565b816001600160a01b0316816001600160a01b03161415801561051257506001600160a01b038082165f9081526001602090815260408083209386168352929052205460ff16155b156103475760405163711bec9160e11b81526001600160a01b0380841660048301528216602482015260440161039f565b6001600160a01b03841661056c57604051632bfa23e760e11b81525f600482015260240161039f565b6001600160a01b03851661059457604051626a0d4560e21b81525f600482015260240161039f565b61031f858585858560016107b8565b6001600160a01b0383166105cb57604051626a0d4560e21b81525f600482015260240161039f565b604080516001808252602082018590528183019081526060820184905260a082019092525f6080820181815291929161031f91879185908590836107b8565b6001600160a01b03841661063357604051632bfa23e760e11b81525f600482015260240161039f565b604080516001808252602082018690528183019081526060820185905260808201909252906106665f87848487846107b8565b505050505050565b6001600160a01b03831661069757604051631f18c42760e11b81525f600482015260240161039f565b6001600160a01b0382166106bf5760405162ced3e160e81b81525f600482015260240161039f565b6001600160a01b038381165f81815260016020908152604080832094871680845294825291829020805460ff191686151590811790915591519182527f17307eab39ab6107e8899845ad3d59bd9653f200f220920489ca2b5937696c31910160405180910390a3505050565b6001600160a01b03841661075457604051632bfa23e760e11b81525f600482015260240161039f565b6001600160a01b03851661077c57604051626a0d4560e21b81525f600482015260240161039f565b604080516001808252602082018690528183019081526060820185905260808201909252906107af87878484875f6107b8565b50505050505050565b6107c486868686610810565b6001600160a01b03851615610666573381156107ed576107e8818888888888610a1f565b6107af565b60208581015190850151610805838a8a85858a610b40565b505050505050505050565b805182511461083f5781518151604051635b05999160e01b81526004810192909252602482015260440161039f565b335f5b8351811015610941576020818102858101820151908501909101516001600160a01b038816156108f3575f828152602081815260408083206001600160a01b038c168452909152902054818110156108cd576040516303dee4c560e01b81526001600160a01b038a16600482015260248101829052604481018390526064810184905260840161039f565b5f838152602081815260408083206001600160a01b038d16845290915290209082900390555b6001600160a01b03871615610937575f828152602081815260408083206001600160a01b038b16845290915281208054839290610931908490611115565b90915550505b5050600101610842565b5082516001036109c15760208301515f906020840151909150856001600160a01b0316876001600160a01b0316846001600160a01b03167fc3d58168c5ae7397731d063d5bbf3d657854427343f4c083240f7aacaa2d0f6285856040516109b2929190918252602082015260400190565b60405180910390a4505061031f565b836001600160a01b0316856001600160a01b0316826001600160a01b03167f4a39dc06d4c0dbc64b70af90fd698a233a518aa5d07e595d983b8c0526c8f7fb8686604051610a10929190611134565b60405180910390a45050505050565b6001600160a01b0384163b156106665760405163bc197c8160e01b81526001600160a01b0385169063bc197c8190610a639089908990889088908890600401611161565b6020604051808303815f875af1925050508015610a9d575060408051601f3d908101601f19168201909252610a9a918101906111be565b60015b610b04573d808015610aca576040519150601f19603f3d011682016040523d82523d5f602084013e610acf565b606091505b5080515f03610afc57604051632bfa23e760e11b81526001600160a01b038616600482015260240161039f565b805160208201fd5b6001600160e01b0319811663bc197c8160e01b146107af57604051632bfa23e760e11b81526001600160a01b038616600482015260240161039f565b6001600160a01b0384163b156106665760405163f23a6e6160e01b81526001600160a01b0385169063f23a6e6190610b8490899089908890889088906004016111d9565b6020604051808303815f875af1925050508015610bbe575060408051601f3d908101601f19168201909252610bbb918101906111be565b60015b610beb573d808015610aca576040519150601f19603f3d011682016040523d82523d5f602084013e610acf565b6001600160e01b0319811663f23a6e6160e01b146107af57604051632bfa23e760e11b81526001600160a01b038616600482015260240161039f565b80356001600160a01b038116811461036d575f5ffd5b5f5f60408385031215610c4e575f5ffd5b610c5783610c27565b946020939093013593505050565b6001600160e01b031981168114610c7a575f5ffd5b50565b5f60208284031215610c8d575f5ffd5b8135610c9881610c65565b9392505050565b5f60208284031215610caf575f5ffd5b5035919050565b5f81518084528060208401602086015e5f602082860101526020601f19601f83011685010191505092915050565b602081525f610c986020830184610cb6565b634e487b7160e01b5f52604160045260245ffd5b604051601f8201601f1916810167ffffffffffffffff81118282101715610d3357610d33610cf6565b604052919050565b5f67ffffffffffffffff821115610d5457610d54610cf6565b5060051b60200190565b5f82601f830112610d6d575f5ffd5b8135610d80610d7b82610d3b565b610d0a565b8082825260208201915060208360051b860101925085831115610da1575f5ffd5b602085015b83811015610dbe578035835260209283019201610da6565b5095945050505050565b5f82601f830112610dd7575f5ffd5b813567ffffffffffffffff811115610df157610df1610cf6565b610e04601f8201601f1916602001610d0a565b818152846020838601011115610e18575f5ffd5b816020850160208301375f918101602001919091529392505050565b5f5f5f5f5f60a08688031215610e48575f5ffd5b610e5186610c27565b9450610e5f60208701610c27565b9350604086013567ffffffffffffffff811115610e7a575f5ffd5b610e8688828901610d5e565b935050606086013567ffffffffffffffff811115610ea2575f5ffd5b610eae88828901610d5e565b925050608086013567ffffffffffffffff811115610eca575f5ffd5b610ed688828901610dc8565b9150509295509295909350565b5f60208284031215610ef3575f5ffd5b610c9882610c27565b5f5f60408385031215610f0d575f5ffd5b823567ffffffffffffffff811115610f23575f5ffd5b8301601f81018513610f33575f5ffd5b8035610f41610d7b82610d3b565b8082825260208201915060208360051b850101925087831115610f62575f5ffd5b6020840193505b82841015610f8b57610f7a84610c27565b825260209384019390910190610f69565b9450505050602083013567ffffffffffffffff811115610fa9575f5ffd5b610fb585828601610d5e565b9150509250929050565b5f8151808452602084019350602083015f5b82811015610fef578151865260209586019590910190600101610fd1565b5093949350505050565b602081525f610c986020830184610fbf565b5f5f6040838503121561101c575f5ffd5b61102583610c27565b915060208301358015158114611039575f5ffd5b809150509250929050565b5f5f60408385031215611055575f5ffd5b61105e83610c27565b915061106c60208401610c27565b90509250929050565b5f5f5f5f5f60a08688031215611089575f5ffd5b61109286610c27565b94506110a060208701610c27565b93506040860135925060608601359150608086013567ffffffffffffffff811115610eca575f5ffd5b600181811c908216806110dd57607f821691505b6020821081036110fb57634e487b7160e01b5f52602260045260245ffd5b50919050565b634e487b7160e01b5f52603260045260245ffd5b8082018082111561022057634e487b7160e01b5f52601160045260245ffd5b604081525f6111466040830185610fbf565b82810360208401526111588185610fbf565b95945050505050565b6001600160a01b0386811682528516602082015260a0604082018190525f9061118c90830186610fbf565b828103606084015261119e8186610fbf565b905082810360808401526111b28185610cb6565b98975050505050505050565b5f602082840312156111ce575f5ffd5b8151610c9881610c65565b6001600160a01b03868116825285166020820152604081018490526060810183905260a0608082018190525f9061121290830184610cb6565b97965050505050505056fea26469706673582212203ee36c811f0767297da22bf8dfca57d2af4e688e03f5b62bfad9173f947db27c64736f6c634300081c0033",
  "linkReferences": {},
  "deployedLinkReferences": {},
  "immutableReferences": {},
  "inputSourceName": "project/contracts/TripCredits.sol",
  "buildInfoId": "solc-0_8_28-09eb576d1b12c652b13b414701a1a6d08e4e3d14"
}