{
  "_format": "hh3-artifact-1",
  "contractName": "MoveChain",
  "sourceName": "contracts/MoveChain.sol",
  "abi": [
    {
      "inputs": [
        {
          "internalType": "address",
          "name": "admin1",
          "type": "address"
        },
        {
          "internalType": "address",
          "name": "admin2",
          "type": "address"
        },
        {
          "internalType": "address",
          "name": "admin3",
          "type": "address"
        },
        {
          "internalType": "address",
          "name": "tripCreditsAddress",
          "type": "address"
        }
      ],
      "stateMutability": "nonpayable",
      "type": "constructor"
    },
    {
      "inputs": [],
      "name": "ECDSAInvalidSignature",
      "type": "error"
    },
    {
      "inputs": [
        {
          "internalType": "uint256",
          "name": "length",
          "type": "uint256"
        }
      ],
      "name": "ECDSAInvalidSignatureLength",
      "type": "error"
    },
    {
      "inputs": [
        {
          "internalType": "bytes32",
          "name": "s",
          "type": "bytes32"
        }
      ],
      "name": "ECDSAInvalidSignatureS",
      "type": "error"
    },
    {
      "inputs": [],
      "name": "InvalidShortString",
      "type": "error"
    },
    {
      "inputs": [
        {
          "internalType": "string",
          "name": "str",
          "type": "string"
        }
      ],
      "name": "StringTooLong",
      "type": "error"
    },
    {
      "anonymous": false,
      "inputs": [
        {
          "indexed": true,
          "internalType": "address",
          "name": "admin",
          "type": "address"
        },
        {
          "indexed": true,
          "internalType": "address",
          "name": "addedBy",
          "type": "address"
        }
      ],
      "name": "AdminAdded_e",
      "type": "event"
    },
    {
      "anonymous": false,
      "inputs": [
        {
          "indexed": true,
          "internalType": "address",
          "name": "rider",
          "type": "address"
        },
        {
          "indexed": true,
          "internalType": "address",
          "name": "operator",
          "type": "address"
        },
        {
          "indexed": false,
          "internalType": "uint256",
          "name": "cost",
          "type": "uint256"
        }
      ],
      "name": "CompleteTrip_e",
      "type": "event"
    },
    {
      "anonymous": false,
      "inputs": [],
      "name": "EIP712DomainChanged",
      "type": "event"
    },
    {
      "anonymous": false,
      "inputs": [
        {
          "indexed": true,
          "internalType": "address",
          "name": "operator",
          "type": "address"
        },
        {
          "indexed": false,
          "internalType": "uint256",
          "name": "amount",
          "type": "uint256"
        }
      ],
      "name": "PayoutCredits_e",
      "type": "event"
    },
    {
      "anonymous": false,
      "inputs": [
        {
          "indexed": true,
          "internalType": "address",
          "name": "rider",
          "type": "address"
        },
        {
          "indexed": true,
          "internalType": "address",
          "name": "operator",
          "type": "address"
        }
      ],
      "name": "StartTrip_e",
      "type": "event"
    },
    {
      "inputs": [],
      "name": "ACTION_START",
      "outputs": [
        {
          "internalType": "uint8",
          "name": "",
          "type": "uint8"
        }
      ],
      "stateMutability": "view",
      "type": "function"
    },
    {
      "inputs": [],
      "name": "ACTION_STOP",
      "outputs": [
        {
          "internalType": "uint8",
          "name": "",
          "type": "uint8"
        }
      ],
      "stateMutability": "view",
      "type": "function"
    },
    {
      "inputs": [
        {
          "internalType": "address",
          "name": "newAdmin",
          "type": "address"
        }
      ],
      "name": "addAdmin",
      "outputs": [],
      "stateMutability": "nonpayable",
      "type": "function"
    },
    {
      "inputs": [
        {
          "internalType": "address",
          "name": "operator",
          "type": "address"
        },
        {
          "internalType": "uint256",
          "name": "_price",
          "type": "uint256"
        }
      ],
      "name": "addOperator",
      "outputs": [],
      "stateMutability": "nonpayable",
      "type": "function"
    },
    {
      "inputs": [
        {
          "internalType": "uint256",
          "name": "",
          "type": "uint256"
        }
      ],
      "name": "admins",
      "outputs": [
        {
          "internalType": "address",
          "name": "",
          "type": "address"
        }
      ],
      "stateMutability": "view",
      "type": "function"
    },
    {
      "inputs": [
        {
          "internalType": "uint256",
          "name": "amount",
          "type": "uint256"
        }
      ],
      "name": "buyCredits",
      "outputs": [],
      "stateMutability": "payable",
      "type": "function"
    },
    {
      "inputs": [
        {
          "internalType": "address",
          "name": "rider",
          "type": "address"
        },
        {
          "internalType": "uint256",
          "name": "deadline",
          "type": "uint256"
        },
        {
          "internalType": "bytes",
          "name": "signature",
          "type": "bytes"
        }
      ],
      "name": "completeTrip",
      "outputs": [],
      "stateMutability": "nonpayable",
      "type": "function"
    },
    {
      "inputs": [
        {
          "internalType": "address",
          "name": "account",
          "type": "address"
        }
      ],
      "name": "creditsOf",
      "outputs": [
        {
          "internalType": "uint256",
          "name": "",
          "type": "uint256"
        }
      ],
      "stateMutability": "view",
      "type": "function"
    },
    {
      "inputs": [],
      "name": "domainSeparator",
      "outputs": [
        {
          "internalType": "bytes32",
          "name": "",
          "type": "bytes32"
        }
      ],
      "stateMutability": "view",
      "type": "function"
    },
    {
      "inputs": [],
      "name": "eip712Domain",
      "outputs": [
        {
          "internalType": "bytes1",
          "name": "fields",
          "type": "bytes1"
        },
        {
          "internalType": "string",
          "name": "name",
          "type": "string"
        },
        {
          "internalType": "string",
          "name": "version",
          "type": "string"
        },
        {
          "internalType": "uint256",
          "name": "chainId",
          "type": "uint256"
        },
        {
          "internalType": "address",
          "name": "verifyingContract",
          "type": "address"
        },
        {
          "internalType": "bytes32",
          "name": "salt",
          "type": "bytes32"
        },
        {
          "internalType": "uint256[]",
          "name": "extensions",
          "type": "uint256[]"
        }
      ],
      "stateMutability": "view",
      "type": "function"
    },
    {
      "inputs": [],
      "name": "getAdmins",
      "outputs": [
        {
          "internalType": "address[]",
          "name": "",
          "type": "address[]"
        }
      ],
      "stateMutability": "view",
      "type": "function"
    },
    {
      "inputs": [],
      "name": "getCreditBalance",
      "outputs": [
        {
          "internalType": "uint256",
          "name": "",
          "type": "uint256"
        }
      ],
      "stateMutability": "view",
      "type": "function"
    },
    {
      "inputs": [],
      "name": "getCreditToEth",
      "outputs": [
        {
          "internalType": "uint256",
          "name": "",
          "type": "uint256"
        }
      ],
      "stateMutability": "view",
      "type": "function"
    },
    {
      "inputs": [],
      "name": "getEthToCredit",
      "outputs": [
        {
          "internalType": "uint256",
          "name": "",
          "type": "uint256"
        }
      ],
      "stateMutability": "view",
      "type": "function"
    },
    {
      "inputs": [
        {
          "internalType": "address",
          "name": "rider",
          "type": "address"
        }
      ],
      "name": "getNonce",
      "outputs": [
        {
          "internalType": "uint256",
          "name": "",
          "type": "uint256"
        }
      ],
      "stateMutability": "view",
      "type": "function"
    },
    {
      "inputs": [
        {
          "internalType": "address",
          "name": "operator",
          "type": "address"
        }
      ],
      "name": "getOperatorPrice",
      "outputs": [
        {
          "internalType": "uint256",
          "name": "",
          "type": "uint256"
        }
      ],
      "stateMutability": "view",
      "type": "function"
    },
    {
      "inputs": [],
      "name": "getWhitelistedOperators",
      "outputs": [
        {
          "internalType": "address[]",
          "name": "",
          "type": "address[]"
        }
      ],
      "stateMutability": "view",
      "type": "function"
    },
    {
      "inputs": [
        {
          "internalType": "address",
          "name": "",
          "type": "address"
        }
      ],
      "name": "isAdmin",
      "outputs": [
        {
          "internalType": "bool",
          "name": "",
          "type": "bool"
        }
      ],
      "stateMutability": "view",
      "type": "function"
    },
    {
      "inputs": [
        {
          "internalType": "address",
          "name": "rider",
          "type": "address"
        }
      ],
      "name": "isOnTrip",
      "outputs": [
        {
          "internalType": "bool",
          "name": "",
          "type": "bool"
        }
      ],
      "stateMutability": "view",
      "type": "function"
    },
    {
      "inputs": [
        {
          "internalType": "address",
          "name": "",
          "type": "address"
        }
      ],
      "name": "operators",
      "outputs": [
        {
          "internalType": "bool",
          "name": "whitelisted",
          "type": "bool"
        },
        {
          "internalType": "uint256",
          "name": "price",
          "type": "uint256"
        },
        {
          "internalType": "uint256",
          "name": "totalEarningsInEth",
          "type": "uint256"
        }
      ],
      "stateMutability": "view",
      "type": "function"
    },
    {
      "inputs": [
        {
          "internalType": "address",
          "name": "operator",
          "type": "address"
        }
      ],
      "name": "removeOperator",
      "outputs": [],
      "stateMutability": "nonpayable",
      "type": "function"
    },
    {
      "inputs": [
        {
          "internalType": "uint256",
          "name": "_creditToEth",
          "type": "uint256"
        }
      ],
      "name": "setCreditToEth",
      "outputs": [],
      "stateMutability": "nonpayable",
      "type": "function"
    },
    {
      "inputs": [
        {
          "internalType": "uint256",
          "name": "_ethToCredit",
          "type": "uint256"
        }
      ],
      "name": "setEthToCredit",
      "outputs": [],
      "stateMutability": "nonpayable",
      "type": "function"
    },
    {
      "inputs": [
        {
          "internalType": "uint256",
          "name": "_price",
          "type": "uint256"
        }
      ],
      "name": "setTripPrice",
      "outputs": [],
      "stateMutability": "nonpayable",
      "type": "function"
    },
    {
      "inputs": [
        {
          "internalType": "address",
          "name": "rider",
          "type": "address"
        },
        {
          "internalType": "uint256",
          "name": "deadline",
          "type": "uint256"
        },
        {
          "internalType": "bytes",
          "name": "signature",
          "type": "bytes"
        }
      ],
      "name": "startTrip",
      "outputs": [],
      "stateMutability": "nonpayable",
      "type": "function"
    },
    {
      "inputs": [
        {
          "internalType": "uint256",
          "name": "amount",
          "type": "uint256"
        }
      ],
      "name": "withdrawCredits",
      "outputs": [],
      "stateMutability": "nonpayable",
      "type": "function"
    }
  ],
  "bytecode": "0x610160604052348015610010575f5ffd5b5060405161253e38038061253e83398101604081905261002f91610366565b604080518082018252600981526826b7bb32a1b430b4b760b91b602080830191909152825180840190935260018352603160f81b9083015290610072825f6101b2565b610120526100818160016101b2565b61014052815160208084019190912060e052815190820120610100524660a05261010d60e05161010051604080517f8b73c3c69bb8fe3d512ecc4cf759cc79239f7b179b0ffacaa9a75d522b39400f60208201529081019290925260608201524660808201523060a08201525f9060c00160405160208183030381529060405280519060200120905090565b60805250503060c0526001600160a01b0381166101605760405162461bcd60e51b815260206004820152600c60248201526b7a65726f206164647265737360a01b60448201526064015b60405180910390fd5b610169846101e4565b610172836101e4565b61017b826101e4565b600480546001600160a01b0319166001600160a01b0392909216919091179055505065b5e620f48000600681905560055550610561565b5f6020835110156101cd576101c68361030e565b90506101de565b816101d8848261044f565b5060ff90505b92915050565b6001600160a01b0381166102295760405162461bcd60e51b815260206004820152600c60248201526b7a65726f206164647265737360a01b6044820152606401610157565b6001600160a01b0381165f9081526002602052604090205460ff16156102815760405162461bcd60e51b815260206004820152600d60248201526c20b63932b0b23c9030b236b4b760991b6044820152606401610157565b6001600160a01b0381165f81815260026020526040808220805460ff1916600190811790915560038054918201815583527fc2575a0e9e593c00f959f8c92f12db2869c3395a3b0502d05e2516446f71f85b0180546001600160a01b03191684179055513392917f6e92e50bc6eae7d9562ef8a2da2be3e9a631c1a8178c8bad0ad5cc35455550ec91a350565b5f5f829050601f81511115610338578260405163305a27a960e01b81526004016101579190610509565b80516103438261053e565b179392505050565b80516001600160a01b0381168114610361575f5ffd5b919050565b5f5f5f5f60808587031215610379575f5ffd5b6103828561034b565b93506103906020860161034b565b925061039e6040860161034b565b91506103ac6060860161034b565b905092959194509250565b634e487b7160e01b5f52604160045260245ffd5b600181811c908216806103df57607f821691505b6020821081036103fd57634e487b7160e01b5f52602260045260245ffd5b50919050565b601f82111561044a57805f5260205f20601f840160051c810160208510156104285750805b601f840160051c820191505b81811015610447575f8155600101610434565b50505b505050565b81516001600160401b03811115610468576104686103b7565b61047c8161047684546103cb565b84610403565b6020601f8211600181146104ae575f83156104975750848201515b5f19600385901b1c1916600184901b178455610447565b5f84815260208120601f198516915b828110156104dd57878501518255602094850194600190920191016104bd565b50848210156104fa57868401515f19600387901b60f8161c191681555b50505050600190811b01905550565b602081525f82518060208401528060208501604085015e5f604082850101526040601f19601f83011684010191505092915050565b805160208083015191908110156103fd575f1960209190910360031b1b16919050565b60805160a05160c05160e051610100516101205161014051611f8c6105b25f395f61162a01525f6115fe01525f61189401525f61186c01525f6117c701525f6117f101525f61181b0152611f8c5ff3fe60806040526004361061017b575f3560e01c80633cfd4d1c116100cd5780639aeee8ab11610087578063b21d976611610062578063b21d9766146104ab578063b83a47bf146104ca578063d038c457146104e9578063f698da2514610508575f5ffd5b80639aeee8ab1461044e578063a79935b01461046d578063ac8a584a1461048c575f5ffd5b80633cfd4d1c146103965780633fc1f5ca146103aa578063495c8bf9146103bd57806370480275146103d15780637bda027b146103f057806384b0196e14610427575f5ffd5b806324d7806c1161013857806331ae450b1161011357806331ae450b1461032e578063359dd2191461034f57806336da26e01461036357806339f7105e14610377575f5ffd5b806324d7806c146102965780632897d07e146102d45780632d0335ab146102fa575f5ffd5b806309ed17821461017f5780630c4dfe3f146101a05780630f7fa72f146101b357806313e7c9d8146101d257806314bfd6d014610232578063245a45b514610269575b5f5ffd5b34801561018a575f5ffd5b5061019e610199366004611c13565b61051c565b005b61019e6101ae366004611c13565b610760565b3480156101be575f5ffd5b5061019e6101cd366004611c45565b61081e565b3480156101dd575f5ffd5b506102106101ec366004611c6d565b60076020525f908152604090208054600182015460029092015460ff909116919083565b6040805193151584526020840192909252908201526060015b60405180910390f35b34801561023d575f5ffd5b5061025161024c366004611c13565b61098c565b6040516001600160a01b039091168152602001610229565b348015610274575f5ffd5b50610288610283366004611c6d565b6109b4565b604051908152602001610229565b3480156102a1575f5ffd5b506102c46102b0366004611c6d565b60026020525f908152604090205460ff1681565b6040519015158152602001610229565b3480156102df575f5ffd5b506102e8600181565b60405160ff9091168152602001610229565b348015610305575f5ffd5b50610288610314366004611c6d565b6001600160a01b03165f908152600b602052604090205490565b348015610339575f5ffd5b50610342610a2b565b6040516102299190611c8d565b34801561035a575f5ffd5b50600654610288565b34801561036e575f5ffd5b50610288610a8b565b348015610382575f5ffd5b5061019e610391366004611c13565b610aff565b3480156103a1575f5ffd5b50600554610288565b3480156103b5575f5ffd5b506102e85f81565b3480156103c8575f5ffd5b50610342610b32565b3480156103dc575f5ffd5b5061019e6103eb366004611c6d565b610b90565b3480156103fb575f5ffd5b506102c461040a366004611c6d565b6001600160a01b03165f9081526009602052604090205460ff1690565b348015610432575f5ffd5b5061043b610bca565b6040516102299796959493929190611d06565b348015610459575f5ffd5b5061019e610468366004611c13565b610c0c565b348015610478575f5ffd5b5061019e610487366004611c13565b610c3f565b348015610497575f5ffd5b5061019e6104a6366004611c6d565b610c86565b3480156104b6575f5ffd5b506102886104c5366004611c6d565b610e33565b3480156104d5575f5ffd5b5061019e6104e4366004611d9c565b610eab565b3480156104f4575f5ffd5b5061019e610503366004611d9c565b611127565b348015610513575f5ffd5b506102886114c4565b335f9081526007602052604090205460ff1615156001146105585760405162461bcd60e51b815260040161054f90611e1f565b60405180910390fd5b60048054604051631db374fb60e11b815233928101929092526001600160a01b031690633b66e9f690602401602060405180830381865afa15801561059f573d5f5f3e3d5ffd5b505050506040513d601f19601f820116820180604052508101906105c39190611e56565b8111156106075760405162461bcd60e51b81526020600482015260126024820152714e6f7420656e6f756768204372656469747360701b604482015260640161054f565b600480546040516306d1b42d60e31b81523392810192909252602482018390526001600160a01b03169063368da168906044015f604051808303815f87803b158015610651575f5ffd5b505af1158015610663573d5f5f3e3d5ffd5b505050505f816006546106769190611e81565b6040519091505f90339083908381818185875af1925050503d805f81146106b8576040519150601f19603f3d011682016040523d82523d5f602084013e6106bd565b606091505b50509050806107005760405162461bcd60e51b815260206004820152600f60248201526e151c985b9cd9995c8819985a5b1959608a1b604482015260640161054f565b335f9081526007602052604081206002018054849290610721908490611e98565b909155505060405183815233907ff673c6be690a269f82e6de3672451eeca487c067c59bd506dfb8612af7aeccb39060200160405180910390a2505050565b60055461076d9082611e81565b34146107bb5760405162461bcd60e51b815260206004820152601f60248201527f4e6f7420656e6f756768206f7220746f6f206d756368204554482073656e7400604482015260640161054f565b6004805460405163871ff40560e01b81523392810192909252602482018390526001600160a01b03169063871ff405906044015f604051808303815f87803b158015610805575f5ffd5b505af1158015610817573d5f5f3e3d5ffd5b5050505050565b335f9081526002602052604090205460ff1661084c5760405162461bcd60e51b815260040161054f90611eab565b6001600160a01b0382166108915760405162461bcd60e51b815260206004820152600c60248201526b7a65726f206164647265737360a01b604482015260640161054f565b6001600160a01b0382165f9081526007602052604090205460ff16156108f95760405162461bcd60e51b815260206004820152601c60248201527f4f70657261746f7220616c72656164792077686974656c697374656400000000604482015260640161054f565b60408051606081018252600180825260208083019485525f8385018181526001600160a01b039790971680825260079092529384209251835460ff1916901515178355935182820155935160029091015560088054938401815590527ff3f7a9fe364faab93b216da50a3214154f22a0a2b415b23a84c8169e8b636ee390910180546001600160a01b0319169091179055565b6003818154811061099b575f80fd5b5f918252602090912001546001600160a01b0316905081565b60048054604051631db374fb60e11b81526001600160a01b03848116938201939093525f9290911690633b66e9f690602401602060405180830381865afa158015610a01573d5f5f3e3d5ffd5b505050506040513d601f19601f82011682018060405250810190610a259190611e56565b92915050565b60606003805480602002602001604051908101604052809291908181526020018280548015610a8157602002820191905f5260205f20905b81546001600160a01b03168152600190910190602001808311610a63575b5050505050905090565b60048054604051631db374fb60e11b815233928101929092525f916001600160a01b0390911690633b66e9f690602401602060405180830381865afa158015610ad6573d5f5f3e3d5ffd5b505050506040513d601f19601f82011682018060405250810190610afa9190611e56565b905090565b335f9081526002602052604090205460ff16610b2d5760405162461bcd60e51b815260040161054f90611eab565b600555565b60606008805480602002602001604051908101604052809291908181526020018280548015610a8157602002820191905f5260205f209081546001600160a01b03168152600190910190602001808311610a63575050505050905090565b335f9081526002602052604090205460ff16610bbe5760405162461bcd60e51b815260040161054f90611eab565b610bc7816114cd565b50565b5f6060805f5f5f6060610bdb6115f7565b610be3611623565b604080515f80825260208201909252600f60f81b9b939a50919850469750309650945092509050565b335f9081526002602052604090205460ff16610c3a5760405162461bcd60e51b815260040161054f90611eab565b600655565b335f9081526007602052604090205460ff161515600114610c725760405162461bcd60e51b815260040161054f90611e1f565b335f90815260076020526040902060010155565b335f9081526002602052604090205460ff16610cb45760405162461bcd60e51b815260040161054f90611eab565b6001600160a01b0381165f9081526007602052604090205460ff16610d1b5760405162461bcd60e51b815260206004820152601c60248201527f4f70657261746f72206973206e6f74206f6e2077686974656c69737400000000604482015260640161054f565b6001600160a01b0381165f908152600760205260408120805460ff19169055600854905b81811015610e2e57826001600160a01b031660088281548110610d6457610d64611ecf565b5f918252602090912001546001600160a01b031603610e26576008610d8a600184611ee3565b81548110610d9a57610d9a611ecf565b5f91825260209091200154600880546001600160a01b039092169183908110610dc557610dc5611ecf565b905f5260205f20015f6101000a8154816001600160a01b0302191690836001600160a01b031602179055506008805480610e0157610e01611ef6565b5f8281526020902081015f1990810180546001600160a01b0319169055019055505050565b600101610d3f565b505050565b6001600160a01b0381165f9081526007602052604081205460ff16610e8d5760405162461bcd60e51b815260206004820152601060248201526f24b73b30b634b21027b832b930ba37b960811b604482015260640161054f565b506001600160a01b03165f9081526007602052604090206001015490565b335f9081526007602052604090205460ff161515600114610ede5760405162461bcd60e51b815260040161054f90611e1f565b82421115610f265760405162461bcd60e51b8152602060048201526015602482015274105d5d1a1bdc9a5e985d1a5bdb88195e1c1a5c9959605a1b604482015260640161054f565b6001600160a01b0384165f9081526009602052604090205460ff1615610f8e5760405162461bcd60e51b815260206004820152601a60248201527f526964657220697320616c7265616479206f6e20612074726970000000000000604482015260640161054f565b335f908152600760205260409081902060010154600480549251631db374fb60e11b81526001600160a01b038881169282019290925291921690633b66e9f690602401602060405180830381865afa158015610fec573d5f5f3e3d5ffd5b505050506040513d601f19601f820116820180604052508101906110109190611e56565b10156110685760405162461bcd60e51b815260206004820152602160248201527f526964657220646f65736e2774206861766520656e6f756768204372656469746044820152607360f81b606482015260840161054f565b61107684335f868686611650565b6040805180820182526001600160a01b038087168083523360208085018281525f838152600a8352878120805460018181018355918352848320895160029092020180549189166001600160a01b031992831617815593519382018054949098169316929092179095558385526009909152858420805460ff19169091179055935192939290917f8381a2d14c69e68030310de1fef6abbd0d15075345d41ba5cc0f0a9cc0c25d4891a35050505050565b335f9081526007602052604090205460ff16151560011461115a5760405162461bcd60e51b815260040161054f90611e1f565b824211156111a25760405162461bcd60e51b8152602060048201526015602482015274105d5d1a1bdc9a5e985d1a5bdb88195e1c1a5c9959605a1b604482015260640161054f565b6001600160a01b0384165f9081526009602052604090205460ff166112025760405162461bcd60e51b815260206004820152601660248201527505269646572206973206e6f74206f6e206120747269760541b604482015260640161054f565b61121184336001868686611650565b6001600160a01b0384165f908152600960209081526040808320805460ff19169055338352600a9091528120815b815481101561135657866001600160a01b031682828154811061126457611264611ecf565b5f9182526020909120600290910201546001600160a01b03160361134e578154829061129290600190611ee3565b815481106112a2576112a2611ecf565b905f5260205f2090600202018282815481106112c0576112c0611ecf565b5f9182526020909120825460029092020180546001600160a01b039283166001600160a01b0319918216178255600193840154939091018054939092169216919091179055815482908061131657611316611ef6565b5f8281526020902060025f199092019182020180546001600160a01b0319908116825560019182018054909116905591559250611356565b60010161123f565b50816113a45760405162461bcd60e51b815260206004820152601e60248201527f4e6f206f70656e207472697020666f722074686973206f70657261746f720000604482015260640161054f565b335f9081526007602052604090819020600101546004805492516306d1b42d60e31b81526001600160a01b038a811692820192909252602481018390529192169063368da168906044015f604051808303815f87803b158015611405575f5ffd5b505af1158015611417573d5f5f3e3d5ffd5b50506004805460405163871ff40560e01b81523392810192909252602482018590526001600160a01b0316925063871ff40591506044015f604051808303815f87803b158015611465575f5ffd5b505af1158015611477573d5f5f3e3d5ffd5b50506040518381523392506001600160a01b038a1691507f705b4a117784db6899e1b2071df6031bd964955f1014b62b466271fa6d45c6979060200160405180910390a350505050505050565b5f610afa6117bb565b6001600160a01b0381166115125760405162461bcd60e51b815260206004820152600c60248201526b7a65726f206164647265737360a01b604482015260640161054f565b6001600160a01b0381165f9081526002602052604090205460ff161561156a5760405162461bcd60e51b815260206004820152600d60248201526c20b63932b0b23c9030b236b4b760991b604482015260640161054f565b6001600160a01b0381165f81815260026020526040808220805460ff1916600190811790915560038054918201815583527fc2575a0e9e593c00f959f8c92f12db2869c3395a3b0502d05e2516446f71f85b0180546001600160a01b03191684179055513392917f6e92e50bc6eae7d9562ef8a2da2be3e9a631c1a8178c8bad0ad5cc35455550ec91a350565b6060610afa7f00000000000000000000000000000000000000000000000000000000000000005f6118e4565b6060610afa7f000000000000000000000000000000000000000000000000000000000000000060016118e4565b6001600160a01b038681165f818152600b602090815260408083205481517f835fe5af4093c5c42ab6817abbbbd00c19535b1d608d011396d46709c9a5aa798185015280830195909552948a16606085015260ff8916608085015260a084019490945260c08084018890528451808503909101815260e090930190935281519190920120906116de8261198e565b90505f6117208286868080601f0160208091040260200160405190810160405280939291908181526020018383808284375f920191909152506119ba92505050565b9050886001600160a01b0316816001600160a01b0316146117835760405162461bcd60e51b815260206004820152601760248201527f496e76616c6964207269646572207369676e6174757265000000000000000000604482015260640161054f565b6001600160a01b0389165f908152600b602052604081208054600192906117ab908490611e98565b9091555050505050505050505050565b5f306001600160a01b037f00000000000000000000000000000000000000000000000000000000000000001614801561181357507f000000000000000000000000000000000000000000000000000000000000000046145b1561183d57507f000000000000000000000000000000000000000000000000000000000000000090565b610afa604080517f8b73c3c69bb8fe3d512ecc4cf759cc79239f7b179b0ffacaa9a75d522b39400f60208201527f0000000000000000000000000000000000000000000000000000000000000000918101919091527f000000000000000000000000000000000000000000000000000000000000000060608201524660808201523060a08201525f9060c00160405160208183030381529060405280519060200120905090565b606060ff83146118fe576118f7836119e2565b9050610a25565b81805461190a90611f0a565b80601f016020809104026020016040519081016040528092919081815260200182805461193690611f0a565b80156119815780601f1061195857610100808354040283529160200191611981565b820191905f5260205f20905b81548152906001019060200180831161196457829003601f168201915b5050505050905092915050565b5f610a2561199a6117bb565b8360405161190160f01b8152600281019290925260228201526042902090565b5f5f5f5f6119c88686611a1f565b9250925092506119d88282611a68565b5090949350505050565b60605f6119ee83611b24565b6040805160208082528183019092529192505f91906020820181803683375050509182525060208101929092525090565b5f5f5f8351604103611a56576020840151604085015160608601515f1a611a4888828585611b4b565b955095509550505050611a61565b505081515f91506002905b9250925092565b5f826003811115611a7b57611a7b611f42565b03611a84575050565b6001826003811115611a9857611a98611f42565b03611ab65760405163f645eedf60e01b815260040160405180910390fd5b6002826003811115611aca57611aca611f42565b03611aeb5760405163fce698f760e01b81526004810182905260240161054f565b6003826003811115611aff57611aff611f42565b03611b20576040516335e2f38360e21b81526004810182905260240161054f565b5050565b5f60ff8216601f811115610a2557604051632cd44ac360e21b815260040160405180910390fd5b5f80807f7fffffffffffffffffffffffffffffff5d576e7357a4501ddfe92f46681b20a0841115611b8457505f91506003905082611c09565b604080515f808252602082018084528a905260ff891692820192909252606081018790526080810186905260019060a0016020604051602081039080840390855afa158015611bd5573d5f5f3e3d5ffd5b5050604051601f1901519150506001600160a01b038116611c0057505f925060019150829050611c09565b92505f91508190505b9450945094915050565b5f60208284031215611c23575f5ffd5b5035919050565b80356001600160a01b0381168114611c40575f5ffd5b919050565b5f5f60408385031215611c56575f5ffd5b611c5f83611c2a565b946020939093013593505050565b5f60208284031215611c7d575f5ffd5b611c8682611c2a565b9392505050565b602080825282518282018190525f918401906040840190835b81811015611ccd5783516001600160a01b0316835260209384019390920191600101611ca6565b509095945050505050565b5f81518084528060208401602086015e5f602082860101526020601f19601f83011685010191505092915050565b60ff60f81b8816815260e060208201525f611d2460e0830189611cd8565b8281036040840152611d368189611cd8565b606084018890526001600160a01b038716608085015260a0840186905283810360c0850152845180825260208087019350909101905f5b81811015611d8b578351835260209384019390920191600101611d6d565b50909b9a5050505050505050505050565b5f5f5f5f60608587031215611daf575f5ffd5b611db885611c2a565b935060208501359250604085013567ffffffffffffffff811115611dda575f5ffd5b8501601f81018713611dea575f5ffd5b803567ffffffffffffffff811115611e00575f5ffd5b876020828401011115611e11575f5ffd5b949793965060200194505050565b60208082526019908201527f4f6e6c792077686974656c6973746564206f70657261746f7200000000000000604082015260600190565b5f60208284031215611e66575f5ffd5b5051919050565b634e487b7160e01b5f52601160045260245ffd5b8082028115828204841417610a2557610a25611e6d565b80820180821115610a2557610a25611e6d565b6020808252600a908201526927b7363c9030b236b4b760b11b604082015260600190565b634e487b7160e01b5f52603260045260245ffd5b81810381811115610a2557610a25611e6d565b634e487b7160e01b5f52603160045260245ffd5b600181811c90821680611f1e57607f821691505b602082108103611f3c57634e487b7160e01b5f52602260045260245ffd5b50919050565b634e487b7160e01b5f52602160045260245ffdfea264697066735822122037816803fdbb169cf37edefb408da9b276e7e0e2d77ed36de8f3dd7e0045ac8164736f6c634300081c0033",
  "linkReferences": {},
  "deployedLinkReferences": {},
  "immutableReferences": {
    "6432": [
      {
        "length": 32,
        "start": 6171
      }
    ],
    "6434": [
      {
        "length": 32,
        "start": 6129
      }
    ],
    "6436": [
      {
        "length": 32,
        "start": 6087
      }
    ],
    "6438": [
      {
        "length": 32,
        "start": 6252
      }
    ],
    "6440": [
      {
        "length": 32,
        "start": 6292
      }
    ],
    "6443": [
      {
        "length": 32,
        "start": 5630
      }
    ],
    "6446": [
      {
        "length": 32,
        "start": 5674
      }
    ]
  },
  "inputSourceName": "project/contracts/MoveChain.sol",
  "buildInfoId": "solc-0_8_28-32160c8a03100580c7ce712b82dcf0766f6bef92"
}